:100000000C9400030C941D030C941D030C941D030D
:100010000C941D030C941D030C941D030C941D03E0
:100020000C941D030C941D030C941D030C941D03D0
:100030000C941D030C9442040C941D030C941D039A
:100040000C941D030C941D030C941D030C941D03B0
:100050000C941D030C941D030C941D030C941D03A0
:100060000C941D030C941D03202020202020202010
:100070002020202020204253572D313030202020B6
:100080002020202020202020202020202020202070
:100090003D3D3D3D3D3D3D3D3D3D3D3D3D3D3D3D90
:1000A0003D3D3D3D3D3D3D3D3D3D3D3D3D3D3D3D80
:1000B0003D3D3D3D3D3D3D3D3D202020202020203B
:1000C0002020202020202020202020202020202030
:1000D0002020202020202020202020202020203D03
:1000E0003D204142434445464748494A4B4C4D4ECA
:1000F0004F505152535455565758595A202020208A
:10010000202020202020203D3D2061626364656620
:100110006768696A6B6C6D6E6F70717273747576F7
:100120007778797A20207B7D7C3A223C3E3F203DC7
:100130003D2060313233343536373839302D3D206B
:100140007E21402324255E262A28295F2B205B5D03
:100150005C3B272C2E2F203D3D20202020202020DE
:10016000202020202020202020202020202020208F
:100170002020202020202020202020202020203D62
:100180003D3D3D3D3D3D3D3D3D3D3D3D3D3D3D3D9F
:100190003D3D3D3D3D3D3D3D3D3D3D3D3D3D3D3D8F
:1001A0003D3D3D3D3D3D3D3D000000000000000067
:1001B000000000000000000000000000000000003F
:1001C000000000000000000000000000000000002F
:1001D000000000000000000000000000000000001F
:1001E000000000000000000000000000000000000F
:1001F00000000000000000000000000000000000FF
:10020000089598B9ED91249188B9099498B9ED9120
:1002100000C088B92050099498B9ED91205088B950
:1002200098B988B9099498B9ED91205088B900C05F
:10023000099498B9ED9188B9205098B988B9099472
:1002400098B9ED9188B92491099498B9205088B94A
:1002500098B9ED9188B9099498B9205088B9ED9171
:1002600098B988B9099498B9205088B9ED9100C01F
:10027000099498B988B998B9ED91205088B9099432
:1002800098B988B9205098B9ED9188B9099498B96E
:1002900088B9ED9198B9205088B9099498B988B96E
:1002A000ED9198B988B92050099498B988B9ED9121
:1002B000205098B988B9099498B988B9ED912491DA
:1002C000099478B9ED91249188B9099488B998B9BD
:1002D000ED9100C088B9099488B998B9ED91205082
:1002E00088B92050099488B998B9ED9188B900C0AF
:1002F000099488B998B9205088B9ED912050099493
:1003000088B998B988B998B988B9ED91099488B92C
:1003100098B988B9ED9198B988B9099488B998B90C
:1003200088B9ED9100C0099488B9205098B9ED9131
:10033000205088B9099488B9205098B9ED9188B9AE
:100340002050099488B9205098B9205088B9ED916F
:10035000099488B9205098B988B9ED912050099432
:1003600088B9ED9198B900C088B9099488B9ED9120
:1003700098B9205088B92050099488B9ED9198B95E
:1003800088B900C0099488B9ED91205098B92050DF
:1003900088B9099488B9ED91205098B988B920504E
:1003A000099488B9ED9100C098B988B9099488B9C1
:1003B000ED91249120500994089500000000000060
:1003C000000000000000000000000000000000002D
:1003D000000000000000000000000000000000001D
:1003E000000000000000000000000000000000000D
:1003F00000000000000000000000000000000000FD
:100400003F893F858381828C3F8A88868409603F4B
:100410003F3F3F3F3F71313F3F3F7A736177323F0C
:100420003F6378646534333F3F2076667472353FAE
:100430003F6E62686779363F3F3F6D6A7537383F78
:100440003F2C6B696F30393F3F2E2F6C3B702D3F37
:100450003F3F273F5B3D3F3F3F3F0A5D3F5C3F3FA4
:100460003F3F3F3F3F3F7F3F3F313F3437343F3F88
:10047000302E323536381B3F8B2B332D2A393F3FF8
:100480003F3F3F873F3F3F3F3F3F3F3F3F3F3F3F34
:100490003F3F3F3F3F3F3F3F3F3F3F3F3F3F3F3F6C
:1004A0003F3F3F3F3F3F3F3F3F3F3F3F3F3F3F3F5C
:1004B0003F3F3F3F3F3F3F3F3F3F3F3F3F3F3F3F4C
:1004C0003F3F3F3F3F3F3F3F3F3F3F3F3F3F3F3F3C
:1004D0003F3F3F3F3F3F3F3F3F3F3F3F3F3F3F3F2C
:1004E0003F3F3F3F3F3F3F3F3F3F3F3F3F3F3F3F1C
:1004F0003F3F3F3F3F3F3F3F3F3F3F3F3F3F3F3F0C
:100500003F3F3F3F3F3F3F3F3F3F3F3F3F097E3FF2
:100510003F3F3F3F3F51213F3F3F5A534157403FAD
:100520003F4358444524233F3F2056465452253FDD
:100530003F4E424847595E3F3F3F4D4A55262A3F6E
:100540003F3C4B494F29283F3F3E3F4C3A505F3F8D
:100550003F3F223F7B2B3F3F3F3F0A7D3F7C3F3F5A
:100560003F3F3F3F3F3F7F3F3F3F3F3F3F3F3F3F5B
:100570003F3F3F3F3F3F1B3F3F2B3F2D2A3F3F3FEA
:100580003F3F3F3F3F3F3F3F3F3F3F3F3F3F3F3F7B
:100590003F3F3F3F3F3F3F3F3F3F3F3F3F3F3F3F6B
:1005A0003F3F3F3F3F3F3F3F3F3F3F3F3F3F3F3F5B
:1005B0003F3F3F3F3F3F3F3F3F3F3F3F3F3F3F3F4B
:1005C0003F3F3F3F3F3F3F3F3F3F3F3F3F3F3F3F3B
:1005D0003F3F3F3F3F3F3F3F3F3F3F3F3F3F3F3F2B
:1005E0003F3F3F3F3F3F3F3F3F3F3F3F3F3F3F3F1B
:1005F0003F3F3F3F3F3F3F3F3F3F3F3F3F3F3F004A
:1006000011241FBECFEFD8E0DEBFCDBF14E0A0E0C5
:10061000B1E0E0E4FAE202C005900D92A230B10729
:10062000D9F728E0A2E0B4E001C01D92A43DB207D2
:10063000E1F70E9490140C941E150C940000909108
:10064000BE08E92FF0E0E054F74F80839F5F97707A
:100650009093BE0808959091BF088091BE089817A6
:1006600051F0E92FF0E0E054F74F80819F5F9770E1
:100670009093BF08089580E008951CBC8CE48CBD65
:100680008FEF8EBD08950F931F93CF93DF930DB41B
:1006900007FEF3C0DEB58FEF8EBD08E011E02091BC
:1006A0000A04211103C010920B04DEC08FEF820FE9
:1006B0008830B8F480910B0490E095958795D7FF2A
:1006C00002C030E801C030E0832B80930B0490918E
:1006D00006048D2F881F8827881F8927809306048A
:1006E000C3C0293009F4C0C080910B04803F19F4C5
:1006F00010930504B2C0803E19F410930404ADC0F9
:10070000823131F480910504812780930304A1C0D4
:100710008935C1F3843131F48091050481278093B8
:10072000020497C090E0FC01E050FC4FC491CF332D
:1007300009F48FC02091050421118BC0209103047E
:10074000222321F0FC01E050FB4FC4918091020470
:100750008111C056C7FF09C08BE10E941F038BE5C2
:100760000E941F0380EB8C0F42C0809104048823F9
:1007700009F46CC082ED8C0F8C3008F067C0C83370
:1007800041F48BE10E941F038BE50E941F0381E46B
:100790005EC0C23341F48BE10E941F038BE50E94CF
:1007A0001F0382E454C0C43341F48BE10E941F0351
:1007B0008BE50E941F0384E44AC0C63341F48BE1F9
:1007C0000E941F038BE50E941F0383E440C0C733D0
:1007D00041F48BE10E941F038BE50E941F0388E414
:1007E00036C0C13341F48BE10E941F038BE50E94A8
:1007F0001F0386E42CC0C93341F48BE10E941F0320
:100800008BE50E941F0385E31DC0C33341F48BE1D8
:100810000E941F038BE50E941F0386E313C0CE32A4
:1008200041F48BE10E941F038BE50E941F0383E3C9
:1008300009C0CF3271F48BE10E941F038BE50E9447
:100840001F0382E30E941F038EE701C08C2F0E94CA
:100850001F03109204041092050410920B041092CE
:10086000060410920A0405C0109209042F5F209319
:100870000A04DD0F015009F012CFDF91CF911F91D3
:100880000F9108951F920F920FB60F9211242F937C
:100890003F934F935F936F937F938F939F93AF9308
:1008A000BF93CF93EF93FF9318B88091D2089091A4
:1008B000D30801969093D3088093D2088E3E21E00E
:1008C000920711F45B9808C0813F914028F0109284
:1008D000D3081092D2085B9A2091D2083091D308A5
:1008E000C90180978D3CE1E09E0708F0ADC720FF6D
:1008F00014C00E9488138091D008823009F0A2C7EA
:100900008091C00087FF9EC78091C00087FFFCCF09
:100910008091C6008093CF0895C796958795809360
:10092000D108682F67706093D00886958695869564
:10093000653008F471C710929508653001F5209173
:10094000CE0830E04091CC0890E0840F911D28172C
:10095000390729F0235E3F4F8217930729F56091ED
:10096000010485E998E00E946614E091CD08F0E06A
:10097000EB56F74F809100048083118215C06630DA
:1009800099F49091CC08890F8D3108F08D51F8E2DF
:100990008F9FC0011124835F9B4FFC012081211197
:1009A00003C060E20E9466140E944303C091CF0816
:1009B000CC2309F4C0C18091CB08811170C0CB3128
:1009C00079F0A091C8084091CE08F8E24F9F9001BD
:1009D00011249091CD088C2FB901635F7B4F02C029
:1009E00081E08DC18F778D3021F41092CD080C9469
:1009F0004013883011F08F37A1F49093CD08809187
:100A0000CD08882311F40C94401381508093CD08B5
:100A1000235F3B4FF901E80FF11D80E280830C94C6
:100A200040138A3019F59093CD084F5F4D3119F07E
:100A30004093CE0802C01092CE088091CE089091CB
:100A4000CC0889130C94401328E2829FC001112422
:100A500060E2835F9B4F0E9466148091CC088F5F99
:100A60008D3109F02EC11092CC082DC1803220F4B6
:100A70009093CD080C944013803211F4A1118FE7AC
:100A8000FB01E90FF11D808351E0590F8AE090E0EE
:100A9000583209F4A7CF5093CD080C9440138130FD
:100AA00079F5CB3511F482E02AC1C13441F480914B
:100AB000CE088F5F8D3151F41092CE088CC0C234B5
:100AC00051F48091CE08811104C08CE18093CE084E
:100AD00082C08150FBCFC33439F48091CD08883275
:100AE00009F479C08F5F09C0C43409F074C08091E3
:100AF000CD08882309F46FC081508093CD086BC066
:100B0000823009F06CC0CB3311F483E0F8C080ED83
:100B10008C0F8A3048F49091CA084AE0949F800D67
:100B200011248093CA0805C1C83429F58091CA08E8
:100B3000811103C081E08093CA088091C9088111A6
:100B400003C081E08093C9088091CA088150209138
:100B5000C90821502093CD083091CC0890E0830F34
:100B6000911D6DE170E00E94F6148093CE08293249
:100B700070F187E277C0CA3479F460E28DE094E0E6
:100B80000E946614EDE0F4E08DE698E010A6B896B9
:100B90008E179F07D9F71BC0C13451F48091CE083E
:100BA0008F5F8093CE088D3191F41092CE080FC0E4
:100BB000C23431F48091CE08811135C08CE134C04B
:100BC000C334A9F1C43409F447C0CD36B1F1109251
:100BD000CA081092C9081092CB080C9440138330B5
:100BE00009F043C080ED8C0F8A3048F49091C90819
:100BF000EAE09E9F800D11248093C9089AC0C834F2
:100C000009F494CFCA3441F660E28DE094E00E948A
:100C10006614EDE0F4E08DE698E010A6B8968E1725
:100C20009F07D9F7D4CF81508093CE08D0CF809141
:100C3000CD08883261F28F5F15C08091CA0898EDA7
:100C4000980F993020F481E08093C808C0CF8111BB
:100C5000BECF1092C808BBCF8091CD08882309F47D
:100C6000B6CF81508093CD08B2CF843091F480EE1E
:100C70008C0F8093CA0885E08093CB08CA3009F0B6
:100C800058C08091CA08811140C081E08093CA0891
:100C90003CC0853061F480EE8C0F8093C908909140
:100CA000CA0891114CCF91E09093CA0848CF863082
:100CB00009F03FC0CB33E9F180ED8C0F8A30C8F1E9
:100CC0008ACF8093CC08CA30A1F58091CB088111DE
:100CD00003C01092CD082DC0813031F0823039F43C
:100CE0001092CA081092C9081092CB0822C0833013
:100CF000B9F3843039F48DEE8093CA0885E080938F
:100D0000CB0817C0853099F4BCCF2091CA08215078
:100D10008091CC0890E0820F911D6DE170E00E94FF
:100D2000F6148093CE0887E28093CD08D9CF863021
:100D3000D9F21092CF088091C00085FF0AC00E94AE
:100D40002B03882331F09091C00095FFFCCF809356
:100D5000C6008091C00087FFC2C18091C00087FF9C
:100D6000FCCFC091C6008091CB08811170C0CB31FF
:100D700079F0A091C8084091CE08F8E24F9F900109
:100D800011249091CD088C2FB901635F7B4F02C075
:100D900081E085C18F778D3021F41092CD080C94BD
:100DA0004613883011F08F37A1F49093CD088091CD
:100DB000CD08882311F40C94461381508093CD08FC
:100DC000235F3B4FF901E80FF11D80E280830C9413
:100DD00046138A3019F59093CD084F5F4D3119F0C5
:100DE0004093CE0802C01092CE088091CE08909118
:100DF000CC0889130C94461328E2829FC001112469
:100E000060E2835F9B4F0E9466148091CC088F5FE5
:100E10008D3109F02DC11092CC082CC1803220F404
:100E20009093CD080C944613803211F4A1118FE7F2
:100E3000FB01E90FF11D808351E0590F8AE090E03A
:100E4000583209F4A7CF5093CD080C944613813043
:100E500079F5CB3511F482E022C1C13441F480919F
:100E6000CE088F5F8D3151F41092CE088CC0C23401
:100E700051F48091CE08811104C08CE18093CE089A
:100E800082C08150FBCFC33439F48091CD088832C1
:100E900009F479C08F5F09C0C43409F074C080912F
:100EA000CD08882309F46FC081508093CD086BC0B2
:100EB000823009F06CC0CB3311F483E0F0C080EDD8
:100EC0008C0F8A3048F49091CA084AE0949F800DB4
:100ED00011248093CA0803C1C83429F58091CA0837
:100EE000811103C081E08093CA088091C9088111F3
:100EF00003C081E08093C9088091CA088150209185
:100F0000C90821502093CD083091CC0890E0830F80
:100F1000911D6DE170E00E94F6148093CE08293295
:100F200070F187E277C0CA3479F460E28DE094E032
:100F30000E946614EDE0F4E08DE698E010A6B89605
:100F40008E179F07D9F71BC0C13451F48091CE088A
:100F50008F5F8093CE088D3191F41092CE080FC030
:100F6000C23431F48091CE08811135C08CE134C097
:100F7000C334A9F1C43409F447C0CD36B1F110929D
:100F8000CA081092C9081092CB080C9446138330FB
:100F900009F043C080ED8C0F8A3048F49091C90865
:100FA000EAE09E9F800D11248093C90898C0C83440
:100FB00009F494CFCA3441F660E28DE094E00E94D7
:100FC0006614EDE0F4E08DE698E010A6B8968E1772
:100FD0009F07D9F7D4CF81508093CE08D0CF80918E
:100FE000CD08883261F28F5F15C08091CA0898EDF4
:100FF000980F993020F481E08093C808C0CF811108
:10100000BECF1092C808BBCF8091CD08882309F4C9
:10101000B6CF81508093CD08B2CF843091F480EE6A
:101020008C0F8093CA0885E08093CB08CA3009F002
:1010300056C08091CA08811138C081E08093CA08E7
:1010400034C0853061F480EE8C0F8093C908909194
:10105000CA0891114CCF91E09093CA0848CF8630CE
:1010600049F4CB33E1F180ED8C0F8A30C0F18BCFA6
:101070008093CC08CA3099F58091CB08811103C0C8
:101080001092CD082CC0813029F18230F9F08330E4
:10109000E9F0843039F48DEE8093CA0885E08093BE
:1010A000CB081DC08530C9F4C4CF2091CA08215097
:1010B0008091CC0890E0820F911D6DE170E00E945C
:1010C000F6148093CE0887E28093CD081092CA0868
:1010D0001092C9081092CB0802C08630D9F3C09193
:1010E000CF08CC2309F4C0C18091CB08811170C016
:1010F000CB3179F0A091C8084091CE08F8E24F9F1B
:10110000900111249091CD088C2FB901635F7B4F22
:1011100002C081E08DC18F778D3021F41092CD080F
:101120000C944C13883011F08F37A1F49093CD08B4
:101130008091CD08882311F40C944C138150809336
:10114000CD08235F3B4FF901E80FF11D80E280835A
:101150000C944C138A3019F59093CD084F5F4D31A4
:1011600019F04093CE0802C01092CE088091CE08AC
:101170009091CC0889130C944C1328E2829FC001F3
:10118000112460E2835F9B4F0E9466148091CC081B
:101190008F5F8D3109F02EC11092CC082DC18032A5
:1011A00020F49093CD080C944C13803211F4A111CB
:1011B0008FE7FB01E90FF11D808351E0590F8AE0B1
:1011C00090E0583209F4A7CF5093CD080C944C13FB
:1011D000813079F5CB3511F482E02AC1C13441F474
:1011E0008091CE088F5F8D3151F41092CE088CC063
:1011F000C23451F48091CE08811104C08CE18093F7
:10120000CE0882C08150FBCFC33439F48091CD0821
:10121000883209F479C08F5F09C0C43409F074C002
:101220008091CD08882309F46FC081508093CD0848
:101230006BC0823009F06CC0CB3311F483E0F8C08E
:1012400080ED8C0F8A3048F49091CA084AE0949F50
:10125000800D11248093CA0805C1C83429F58091F6
:10126000CA08811103C081E08093CA088091C9082F
:10127000811103C081E08093C9088091CA08815020
:101280002091C90821502093CD083091CC0890E0DE
:10129000830F911D6DE170E00E94F6148093CE08DB
:1012A000293270F187E277C0CA3479F460E28DE0C8
:1012B00094E00E946614EDE0F4E08DE698E010A65C
:1012C000B8968E179F07D9F71BC0C13451F480918F
:1012D000CE088F5F8093CE088D3191F41092CE08A6
:1012E0000FC0C23431F48091CE08811135C08CE139
:1012F00034C0C334A9F1C43409F447C0CD36B1F1C8
:101300001092CA081092C9081092CB080C944C1382
:10131000833009F043C080ED8C0F8A3048F49091FF
:10132000C908EAE09E9F800D11248093C9089AC0E5
:10133000C83409F494CFCA3441F660E28DE094E0F9
:101340000E946614EDE0F4E08DE698E010A6B896F1
:101350008E179F07D9F7D4CF81508093CE08D0CF76
:101360008091CD08883261F28F5F15C08091CA08E4
:1013700098ED980F993020F481E08093C808C0CF91
:101380008111BECF1092C808BBCF8091CD088823B1
:1013900009F4B6CF81508093CD08B2CF843091F458
:1013A00080EE8C0F8093CA0885E08093CB08CA300A
:1013B00009F058C08091CA08811140C081E0809333
:1013C000CA083CC0853061F480EE8C0F8093C90858
:1013D0009091CA0891114CCF91E09093CA0848CFE0
:1013E000863009F03FC0CB33E9F180ED8C0F8A30B5
:1013F000C8F18ACF8093CC08CA30A1F58091CB0880
:10140000811103C01092CD082DC0813031F082309F
:1014100039F41092CA081092C9081092CB0822C061
:101420008330B9F3843039F48DEE8093CA0885E0B7
:101430008093CB0817C0853099F4BCCF2091CA089F
:1014400021508091CC0890E0820F911D6DE170E0F9
:101450000E94F6148093CE0887E28093CD08D9CFFE
:101460008630D9F21092CF088091C00085FF0AC063
:101470000E942B03882331F09091C00095FFFCCF90
:101480008093C6008091C00087FFDCC18091C000BE
:1014900087FFFCCFC091C6008091CB08811170C03E
:1014A000CB3179F0A091C8084091CE08F8E24F9F67
:1014B000900111249091CD088C2FB901635F7B4F6F
:1014C00002C081E088C18F778D3021F41092CD0861
:1014D0000C945213883011F08F37A1F49093CD08FB
:1014E0008091CD08882311F40C945213815080937D
:1014F000CD08235F3B4FF901E80FF11D80E28083A7
:101500000C9452138A3019F59093CD084F5F4D31EA
:1015100019F04093CE0802C01092CE088091CE08F8
:101520009091CC0889130C94521328E2829FC00139
:10153000112460E2835F9B4F0E9466148091CC0867
:101540008F5F8D3109F02FC11092CC082EC18032EF
:1015500020F49093CD080C945213803211F4A11111
:101560008FE7FB01E90FF11D808351E0590F8AE0FD
:1015700090E0583209F4A7CF5093CD080C94521341
:10158000813079F5CB3511F482E025C1C13441F4C5
:101590008091CE088F5F8D3151F41092CE088CC0AF
:1015A000C23451F48091CE08811104C08CE1809343
:1015B000CE0882C08150FBCFC33439F48091CD086E
:1015C000883209F479C08F5F09C0C43409F074C04F
:1015D0008091CD08882309F46FC081508093CD0895
:1015E0006BC0823009F06CC0CB3311F483E0F3C0E0
:1015F00080ED8C0F8A3048F49091CA084AE0949F9D
:10160000800D11248093CA081DC1C83429F580912A
:10161000CA08811103C081E08093CA088091C9087B
:10162000811103C081E08093C9088091CA0881506C
:101630002091C90821502093CD083091CC0890E02A
:10164000830F911D6DE170E00E94F6148093CE0827
:10165000293270F187E276C0CA3479F460E28DE015
:1016600094E00E946614EDE0F4E08DE698E010A6A8
:10167000B8968E179F07D9F71BC0C13451F48091DB
:10168000CE088F5F8093CE088D3191F41092CE08F2
:101690000FC0C23431F48091CE08811134C08CE186
:1016A00033C0C334A1F1C43409F446C0CD36A9F126
:1016B0001092CA081092C9081092CB080C945213C9
:1016C000833009F042C080ED8C0F8A3048F490914D
:1016D000C908EAE09E9F800D11248093C908B2C01A
:1016E000C83409F494CFCA3441F660E28DE094E046
:1016F0000E946614EDE0F4E010A6B89628E0ED36FE
:10170000F207D1F7D5CF81508093CE08D1CF809109
:10171000CD08883269F28F5F15C08091CA0898EDB4
:10172000980F993020F481E08093C808C1CF8111CF
:10173000BFCF1092C808BCCF8091CD08882309F490
:10174000B7CF81508093CD08B3CF843091F480EE31
:101750008C0F8093CA0885E08093CB08CA3009F0CB
:1017600071C08091CA0881113CC081E08093CA0891
:1017700038C0853061F480EE8C0F8093C908909159
:10178000CA0891114DCF91E09093CA0849CF863095
:1017900009F058C0CB3309F455C080ED8C0F8A3066
:1017A00008F450C089CF8093CC08CA3009F04AC0F1
:1017B0008091CB08811103C01092CD0843C08130C5
:1017C00029F18230F9F08330E9F0843039F48DEE7C
:1017D0008093CA0885E08093CB0834C08530C9F473
:1017E000C0CF2091CA0821508091CC0890E0820F90
:1017F000911D6DE170E00E94F6148093CE0887E29F
:101800008093CD081092CA081092C9081092CB0894
:1018100019C08630D9F316C09091CC08890F8D314C
:1018200008F08D5140E8649FB001112460507F4F53
:10183000E8E28E9FC001112445E958E0835F9B4F89
:101840000E94941318B841C70E944303C091CF0867
:10185000CC2309F4B8C18091CB0881116AC0CB3187
:1018600079F0A091C8084091CE08F8E24F9F90010E
:1018700011249091CD088C2FB901635F7B4F02C07A
:1018800081E085C18F778D3019F41092CD080EC795
:10189000883011F08F3791F49093CD088091CD0866
:1018A000882309F403C781508093CD08235F3B4F01
:1018B000F901E80FF11D80E28083F8C68A3011F546
:1018C0009093CD084F5F4D3119F04093CE0802C080
:1018D0001092CE088091CE089091CC088913E6C66C
:1018E00028E2829FC001112460E2835F9B4F0E9427
:1018F00066148091CC088F5F8D3109F02AC1109257
:10190000CC0829C1803218F49093CD08CFC680321C
:1019100011F4A1118FE7FB01E90FF11D808351E064
:10192000590F8AE090E0583209F4ACCF5093CD08BB
:10193000BDC6813079F5CB3511F482E028C1C134C0
:1019400041F48091CE088F5F8D3151F41092CE0812
:101950008BC0C23451F48091CE08811104C08CE157
:101960008093CE0881C08150FBCFC33439F480917D
:10197000CD08883209F478C08F5F09C0C43409F0FB
:1019800073C08091CD08882309F46EC08150809384
:10199000CD086AC0823009F06AC0CB3311F483E00D
:1019A000F6C080ED8C0F8A3048F49091CA084AE066
:1019B000949F800D11248093CA0803C1C83429F56F
:1019C0008091CA08811103C081E08093CA08809188
:1019D000C908811103C081E08093C9088091CA08B9
:1019E00081502091C90821502093CD083091CC0816
:1019F00090E0830F911D6DE170E00E94F6148093DA
:101A0000CE08293268F187E275C0CA3471F460E209
:101A10008DE094E00E946614EDE0F4E010A6B89624
:101A200088E0ED36F807D1F71BC0C13451F480913E
:101A3000CE088F5F8093CE088D3191F41092CE083E
:101A40000FC0C23431F48091CE08811134C08CE1D2
:101A500033C0C334A1F1C43409F446C0CD36A9F172
:101A60001092CA081092C9081092CB081FC6833082
:101A700009F043C080ED8C0F8A3048F49091C9087A
:101A8000EAE09E9F800D11248093C9089AC0C83453
:101A900009F496CFCA3449F660E28DE094E00E94E2
:101AA0006614EDE0F4E08DE698E010A6B8968E1787
:101AB0009F07D9F7D5CF81508093CE08D1CF8091A1
:101AC000CD08883269F28F5F15C08091CA0898ED01
:101AD000980F993020F481E08093C808C1CF81111C
:101AE000BFCF1092C808BCCF8091CD08882309F4DD
:101AF000B7CF81508093CD08B3CF843091F480EE7E
:101B00008C0F8093CA0885E08093CB08CA3009F017
:101B100058C08091CA08811140C081E08093CA08F2
:101B20003CC0853061F480EE8C0F8093C9089091A1
:101B3000CA0891114ECF91E09093CA084ACF8630DF
:101B400009F03FC0CB33E9F180ED8C0F8A30C8F14A
:101B50008BCF8093CC08CA30A1F58091CB0881113E
:101B600003C01092CD082DC0813031F0823039F49D
:101B70001092CA081092C9081092CB0822C0833074
:101B8000B9F3843039F48DEE8093CA0885E08093F0
:101B9000CB0817C0853099F4BCCF2091CA082150DA
:101BA0008091CC0890E0820F911D6DE170E00E9461
:101BB000F6148093CE0887E28093CD08D9CF863083
:101BC000D9F21092CF088091C00085FF0AC00E9410
:101BD0002B03882331F09091C00095FFFCCF8093B8
:101BE000C6008091C00087FFBBC18091C00087FF05
:101BF000FCCFC091C6008091CB0881116AC0CB3167
:101C000079F0A091C8084091CE08F8E24F9F90016A
:101C100011249091CD088C2FB901635F7B4F02C0D6
:101C200081E07EC18F778D3019F41092CD0842C5C6
:101C3000883011F08F3791F49093CD088091CD08C2
:101C4000882309F437C581508093CD08235F3B4F2B
:101C5000F901E80FF11D80E280832CC58A3011F56F
:101C60009093CD084F5F4D3119F04093CE0802C0DC
:101C70001092CE088091CE089091CC0889131AC595
:101C800028E2829FC001112460E2835F9B4F0E9483
:101C900066148091CC088F5F8D3109F02AC11092B3
:101CA000CC0829C1803218F49093CD0803C5803246
:101CB00011F4A1118FE7FB01E90FF11D808351E0C1
:101CC000590F8AE090E0583209F4ACCF5093CD0818
:101CD000F1C4813079F5CB3511F482E021C1C134F2
:101CE00041F48091CE088F5F8D3151F41092CE086F
:101CF0008CC0C23451F48091CE08811104C08CE1B3
:101D00008093CE0882C08150FBCFC33439F48091D8
:101D1000CD08883209F479C08F5F09C0C43409F056
:101D200074C08091CD08882309F46FC081508093DE
:101D3000CD086BC0823009F06BC0CB3311F483E067
:101D4000EFC080ED8C0F8A3048F49091CA084AE0C9
:101D5000949F800D11248093CA0802C1C83429F5CC
:101D60008091CA08811103C081E08093CA088091E4
:101D7000C908811103C081E08093C9088091CA0815
:101D800081502091C90821502093CD083091CC0872
:101D900090E0830F911D6DE170E00E94F614809336
:101DA000CE08293270F187E276C0CA3479F460E255
:101DB0008DE094E00E946614EDE0F4E08DE698E09A
:101DC00010A6B8968E179F07D9F71BC0C13451F4DF
:101DD0008091CE088F5F8093CE088D3191F4109260
:101DE000CE080FC0C23431F48091CE08811134C0C6
:101DF0008CE133C0C334A1F1C43409F446C0CD36FC
:101E0000A9F11092CA081092C9081092CB0852C4C6
:101E1000833009F043C080ED8C0F8A3048F49091F4
:101E2000C908EAE09E9F800D11248093C90898C0DC
:101E3000C83409F495CFCA3449F660E28DE094E0E5
:101E40000E946614EDE0F4E08DE698E010A6B896E6
:101E50008E179F07D9F7D5CF81508093CE08D1CF69
:101E60008091CD08883269F28F5F15C08091CA08D1
:101E700098ED980F993020F481E08093C808C1CF85
:101E80008111BFCF1092C808BCCF8091CD088823A4
:101E900009F4B7CF81508093CD08B3CF843091F44B
:101EA00080EE8C0F8093CA0885E08093CB08CA30FF
:101EB00009F056C08091CA08811138C081E0809332
:101EC000CA0834C0853061F480EE8C0F8093C90855
:101ED0009091CA0891114DCF91E09093CA0849CFD3
:101EE000863049F4CB33E1F180ED8C0F8A30C0F1BC
:101EF0008CCF8093CC08CA3099F58091CB088111A2
:101F000003C01092CD082CC0813029F18230F9F045
:101F10008330E9F0843039F48DEE8093CA0885E08F
:101F20008093CB081DC08530C9F4C4CF2091CA0866
:101F300021508091CC0890E0820F911D6DE170E0FE
:101F40000E94F6148093CE0887E28093CD08109209
:101F5000CA081092C9081092CB0802C08630D9F383
:101F6000C091CF08CC2309F4B9C18091CB0881116D
:101F70006AC0CB3179F0A091C8084091CE08F8E250
:101F80004F9F900111249091CD088C2FB901635F70
:101F90007B4F02C081E086C18F778D3019F410929B
:101FA000CD088CC3883011F08F3791F49093CD0811
:101FB0008091CD08882309F481C381508093CD0896
:101FC000235F3B4FF901E80FF11D80E2808376C368
:101FD0008A3011F59093CD084F5F4D3119F0409341
:101FE000CE0802C01092CE088091CE089091CC0805
:101FF000891364C328E2829FC001112460E2835FD9
:102000009B4F0E9466148091CC088F5F8D3109F040
:102010002BC11092CC082AC1803218F49093CD08BD
:102020004DC3803211F4A1118FE7FB01E90FF11DBF
:10203000808351E0590F8AE090E0583209F4ACCF28
:102040005093CD083BC3813079F5CB3511F482E054
:1020500029C1C13441F48091CE088F5F8D3151F494
:102060001092CE088CC0C23451F48091CE088111F8
:1020700004C08CE18093CE0882C08150FBCFC33472
:1020800039F48091CD08883209F479C08F5F09C096
:10209000C43409F074C08091CD08882309F46FC05E
:1020A00081508093CD086BC0823009F06BC0CB3378
:1020B00011F483E0F7C080ED8C0F8A3048F49091E2
:1020C000CA084AE0949F800D11248093CA0804C175
:1020D000C83429F58091CA08811103C081E080933A
:1020E000CA088091C908811103C081E08093C908A2
:1020F0008091CA0881502091C90821502093CD08B1
:102100003091CC0890E0830F911D6DE170E00E944A
:10211000F6148093CE08293270F187E276C0CA3473
:1021200079F460E28DE094E00E946614EDE0F4E062
:102130008DE698E010A6B8968E179F07D9F71BC0BA
:10214000C13451F48091CE088F5F8093CE088D31D9
:1021500091F41092CE080FC0C23431F48091CE08B1
:10216000811134C08CE133C0C334A1F1C43409F40B
:1021700046C0CD36A9F11092CA081092C908109233
:10218000CB089CC2833009F043C080ED8C0F8A30AD
:1021900048F49091C908EAE09E9F800D1124809335
:1021A000C9089AC0C83409F495CFCA3449F660E228
:1021B0008DE094E00E946614EDE0F4E08DE698E096
:1021C00010A6B8968E179F07D9F7D5CF8150809368
:1021D000CE08D1CF8091CD08883269F28F5F15C0CB
:1021E0008091CA0898ED980F993020F481E080938F
:1021F000C808C1CF8111BFCF1092C808BCCF809151
:10220000CD08882309F4B7CF81508093CD08B3CF90
:10221000843091F480EE8C0F8093CA0885E080931F
:10222000CB08CA3009F058C08091CA08811140C05B
:1022300081E08093CA083CC0853061F480EE8C0F49
:102240008093C9089091CA0891114DCF91E0909365
:10225000CA0849CF863009F03FC0CB33E9F180EDA1
:102260008C0F8A30C8F18BCF8093CC08CA30A1F58F
:102270008091CB08811103C01092CD082DC0813010
:1022800031F0823039F41092CA081092C9081092C5
:10229000CB0822C08330B9F3843039F48DEE8093BB
:1022A000CA0885E08093CB0817C0853099F4BCCF6D
:1022B0002091CA0821508091CC0890E0820F911D96
:1022C0006DE170E00E94F6148093CE0887E280935F
:1022D000CD08D9CF8630D9F21092CF088091C000B6
:1022E00085FF0AC00E942B03882331F09091C00023
:1022F00095FFFCCF8093C6008091C00087FFE5C1A9
:102300008091C00087FFFCCFC091C6008091CB08B0
:1023100081116AC0CB3179F0A091C8084091CE08F4
:10232000F8E24F9F900111249091CD088C2FB901B4
:10233000635F7B4F02C081E05CC08F778D3019F402
:102340001092CD08BFC1883011F08F3791F490936F
:10235000CD088091CD08882309F4B4C181508093C1
:10236000CD08235F3B4FF901E80FF11D80E2808328
:10237000A9C18A3011F59093CD084F5F4D3119F006
:102380004093CE0802C01092CE088091CE08909162
:10239000CC08891397C128E2829FC001112460E212
:1023A000835F9B4F0E9466148091CC088F5F8D31B4
:1023B00009F02FC11092CC082EC1803218F49093EE
:1023C000CD0880C1803211F4A1118FE7FB01E90F24
:1023D000F11D808351E0590F8AE090E0583209F4F2
:1023E000ACCF5093CD086EC1813089F5CB3521F447
:1023F00082E08093CB0869C1C13441F48091CE085A
:102400008F5F8D3151F41092CE088CC0C23451F4DC
:102410008091CE08811104C08CE18093CE0882C0E7
:102420008150FBCFC33439F48091CD08883209F450
:1024300079C08F5F09C0C43409F074C08091CD08A1
:10244000882309F46FC081508093CD086BC082301F
:1024500009F06BC0CB3311F483E0CBCF80ED8C0F50
:102460008A3048F49091CA084AE0949F800D112464
:102470008093CA082AC1C83429F58091CA088111FD
:1024800003C081E08093CA088091C908811103C00C
:1024900081E08093C9088091CA0881502091C908C1
:1024A00021502093CD083091CC0890E0830F911DEE
:1024B0006DE170E00E94F6148093CE08293270F12D
:1024C00087E276C0CA3479F460E28DE094E00E943D
:1024D0006614EDE0F4E08DE698E010A6B8968E174D
:1024E0009F07D9F71BC0C13451F48091CE088F5F8C
:1024F0008093CE088D3191F41092CE080FC0C23473
:1025000031F48091CE08811134C08CE133C0C334E2
:10251000A1F1C43409F446C0CD36A9F11092CA081D
:102520001092C9081092CB08CDC0833009F043C087
:1025300080ED8C0F8A3048F49091C908EAE09E9FA4
:10254000800D11248093C908C0C0C83409F495CF08
:10255000CA3449F660E28DE094E00E946614EDE032
:10256000F4E08DE698E010A6B8968E179F07D9F78D
:10257000D5CF81508093CE08D1CF8091CD088832BD
:1025800069F28F5F15C08091CA0898ED980F993055
:1025900020F481E08093C808C1CF8111BFCF109291
:1025A000C808BCCF8091CD08882309F4B7CF8150EB
:1025B0008093CD08B3CF843091F480EE8C0F80935C
:1025C000CA0885E08093CB08CA3009F07EC08091AC
:1025D000CA0881113AC081E08093CA0836C08530AC
:1025E00061F480EE8C0F8093C9089091CA08911114
:1025F0004DCF91E09093CA0849CF863009F065C06D
:10260000CB3309F462C080ED8C0F8A3008F45DC0D2
:1026100089CF8093CC08CA3009F057C08091CB088D
:10262000811103C01092CD0850C0813019F1823061
:10263000E9F08330D9F0843029F48DEE8093CA0814
:1026400085E0D7CE8530C9F4C2CF2091CA08215089
:102650008091CC0890E0820F911D6DE170E00E94A6
:10266000F6148093CE0887E28093CD081092CA08B2
:102670001092C9081092CB0828C08630D9F325C023
:10268000CA3011F00C9499060C946906CA3011F006
:102690000C946F080C944008CA3011F00C94320A64
:1026A0000C94020ACA3009F0CDC886C8CA3009F0B5
:1026B00088CA57CACA3009F053CC23CCCA3009F0B3
:1026C0000BCEDACDCA3009F4ADCFFF91EF91CF91A7
:1026D000BF91AF919F918F917F916F915F914F913A
:1026E0003F912F910F900FBE0F901F901895109251
:1026F000CD0888E08093CE08E8E6F0E0ADE0B4E0F5
:1027000084913196882311F08D93FACF089508951E
:1027100080E09FEF71E0A5E9B8E0E0E0F2E0F69537
:10272000E795ED9109940895CF93DF93DC01EB01D8
:10273000FA013D91EB01C30F388131933D91EB01DB
:10274000C30F388131933D91EB01C30F3881319331
:102750003D91EB01C30F388131933D91EB01C30FE4
:10276000388131933D91EB01C30F388131933D9115
:10277000EB01C30F388131933D91EB01C30F3881D9
:1027800031933D91EB01C30F388131933D91EB01C2
:10279000C30F388131933D91EB01C30F38813193E1
:1027A0003D91EB01C30F388131933D91EB01C30F94
:1027B000388131933D91EB01C30F388131933D91C5
:1027C000EB01C30F388131933D91EB01C30F388189
:1027D00031933D91EB01C30F388131933D91EB0172
:1027E000C30F388131933D91EB01C30F3881319391
:1027F0003D91EB01C30F388131933D91EB01C30F44
:10280000388131933D91EB01C30F388131933D9174
:10281000EB01C30F388131933D91EB01C30F388138
:1028200031933D91EB01C30F388131933D91EB0121
:10283000C30F388131933D91EB01C30F3881319340
:102840003D91EB01C30F388131933D91EB01C30FF3
:10285000388131933D91EB01C30F388131933D9124
:10286000EB01C30F388131933D91EB01C30F3881E8
:1028700031933D91EB01C30F388131933D91EB01D1
:10288000C30F388131933D91EB01C30F38813193F0
:102890003D91EB01C30F388131933D91EB01C30FA3
:1028A000388131933D91EB01C30F388131933D91D4
:1028B000EB01C30F388131933D91EB01C30F388198
:1028C000319330E03193DF91CF910895DC016D9326
:1028D0006D936D936D936D936D936D936D936D93F8
:1028E0006D936D936D936D936D936D936D936D93E8
:1028F0006D936D936D936D936D936D936D936D93D8
:102900006D936D936D936D936D936D936D936D93C7
:102910006D936D936D936D936D936D936D9308951A
:102920000E9477138EE08093C2001092C50080E170
:102930008093C400559A219A539A389A399A3A9AB0
:1029400023982B9824982C9825982D980E943D0325
:1029500080918100887F809381008CE192E0909348
:1029600087008093860081EF91E0909389008093A7
:10297000880081E090E09093850080938400299AFC
:10298000809180008E7F80938000809180008260A3
:102990008093800080918100886080938100809185
:1029A0008100806180938100809180008F7380938B
:1029B00080008091800080688093800080916F000B
:1029C000816080936F0080918100887F8093810077
:1029D0008091810081608093810083B7817F83BF74
:1029E000789483B7816083BF8895FECF97FB072ECD
:1029F00016F4009407D077FD09D00E940A1507FC51
:102A000005D03EF4909581959F4F089570956195FE
:102A10007F4F0895AA1BBB1B51E107C0AA1FBB1F14
:102A2000A617B70710F0A61BB70B881F991F5A955A
:102A3000A9F780959095BC01CD010895F894FFCF3A
:102A4000D7D7D7D7D7D7D7D7D7D7D7D7D7D7D7D716
:102A5000D7D7D7D7D7D7D7D7D7D7D7D7D7D7D7D706
:102A6000D7A987878047799B9B206CA9D7D7D7D7D1
:102A700001A901015501010101017979C3D733662B
:102A8000016C066C0606066C556CBD555C55556CA4
:102A90006C6C6C66065555554E550194D76CA9D78C
:102AA00033D75CD7D1D79BD75CA9BDD779D7D7D738
:102AB000D7D7D7D7A9D7D7D7D7D7D7B0A973D76103
:102AC000D7D7D7D7D7D7D7D7D7D7D7D7D7D7D7D796
:102AD000D7D7D7D7D7D7D7D7D7D7D7D7D7D7D7D786
:102AE000D7A9870166B65C9B209B01A9D7D7D7B62B
:102AF0005579D1D1555C5CD155557979A201A2D1D6
:102B00005555875C875C5C5C55A9BD555C252C558B
:102B10005555555CA95555558055C3A233B680D738
:102B2000796C5C6CD16CA9665CD7D75CA9556C6C70
:102B30006C6C6C6606555555875501BDA9BD8E61F7
:102B4000D7D7D7D7D7D7D7D7D7D7D7D7D7D7D7D715
:102B5000D7D7D7D7D7D7D7D7D7D7D7D7D7D7D7D705
:102B6000D7A98787A27987BD209B6C01D766D7A29A
:102B700055A90101010101D10101D7D733D7C39B69
:102B800040016C5C8706064001A9BD065C0C395506
:102B90000655066CA9554755A96CA2A279B64ED721
:102BA000D766065C66016C5506A9BD47A925555533
:102BB00055555C01A95547559B66B679A9C319615E
:102BC000D7D7D7D7D7D7D7D7D7D7D7D7D7D7D7D795
:102BD000D7D7D7D7D7D7D7D7D7D7D7D7D7D7D7D785
:102BE000D7D7D701062C40D7209BD7A979D7797999
:102BF00055A95CD1D1D155D155D17979A201A2D7AE
:102C00004055875C875C5C5555A9BD555555405569
:102C10005C4047D1A9556C3980A933A2A2B6D7D759
:102C2000D755555C555CA96655A9BD13A90C5555DA
:102C300006665CD1A9556C3987D179BDA9BD4061C3
:102C4000D7D7D7D7D7D7D7D7D7D7D7D7D7D7D7D714
:102C5000D7D7D7D7D7D7D7D7D7D7D7D7D7D7D7D704
:102C6000D7A9D78780D76CD79B20D7A933D77933FB
:102C700001A90101D10101D101017933C3D733A9E0
:102C80004055066C06065C66556C79550155556CC9
:102C90005C6C5506A96CA9254EA90194B66CD701A8
:102CA000D7666C6C666CA96C55A27947A255556CB9
:102CB0005CD15C069B6CA925876C01B0A973CA61C5
:102CC0000000000000000000000000000000000004
:102CD00000000000000000000000000000000000F4
:102CE00000000000000000000000000000000000E4
:102CF00000000000000000000000000000000000D4
:102D000000000000000000000000000000000000C3
:102D100000000000000000000000000000000000B3
:102D200000000000000000000000000000000000A3
:102D30000000000000000000000000000000000093
:022D400061D759
:00000001FF
