:100000000C9400050C941D050C941D050C941D0505
:100010000C941D050C941D050C941D050C941D05D8
:100020000C941D050C941D050C941D050C941D05C8
:100030000C941D050C940D0B0C941D050C941D05C2
:100040000C941D050C941D050C941D050C941D05A8
:100050000C941D050C941D050C941D050C941D0598
:100060000C941D050C941D054750494F5232004712
:1000700050494F5231004750494F5230004261754C
:100080006420726174653A20003D3D3D3D3D3D3D3B
:100090003D3D3D3D3D3D3D3D3D3D3D3D3D3D3D3D90
:1000A0003D3D3D3D3D3D3D3D3D3D3D3D3D3D3D3D80
:1000B0003D3D202020202020202020202020202006
:1000C0002020202020202020202020202020202030
:1000D00020202020202020203D3D20414243444537
:1000E000464748494A4B4C4D4E4F50515253545538
:1000F000565758595A2020202020202020202020E8
:100100003D3D206162636465666768696A6B6C6D1A
:100110006E6F707172737475767778797A20207B40
:100120007D7C3A223C3E3F203D3D206031323334DD
:100130003536373839302D3D207E21402324255E49
:10014000262A28295F2B205B5D5C3B272C2E2F2045
:100150003D3D202020202020202020202020202065
:10016000202020202020202020202020202020208F
:1001700020202020202020203D3D3D3D3D3D3D3D97
:100180003D3D3D3D3D3D3D3D3D3D3D3D3D3D3D3D9F
:100190003D3D3D3D3D3D3D3D3D3D3D3D3D3D3D3D8F
:1001A0003D00000A20202020202020202020202088
:1001B00020204253572D3131332020202020202071
:1001C00020202020202020202020202000000000AF
:1001D000000000000000000000000000000000001F
:1001E000000000000000000000000000000000000F
:1001F00000000000000000000000000000000000FF
:10020000D7D7D7D7D7D7D7D7D7D7D7D7D7D7D7D77E
:10021000D7D7D7D7D7D7D7D7D7D7D7D7D7D7D7D76E
:10022000D7A987878047799B9B206CA9D7D7D7D739
:1002300001A901015501010101017979C3D7336693
:10024000016C066C0606066C556CBD555C55556C0C
:100250006C6C6C66065555554E550194D76CA9D7F4
:1002600033D75CD7D1D79BD75CA9BDD779D7D7D7A0
:10027000D7D7D7D7A9D7D7D7D7D7D7B0A973D7616B
:10028000D7D7D7D7D7D7D7D7D7D7D7D7D7D7D7D7FE
:10029000D7D7D7D7D7D7D7D7D7D7D7D7D7D7D7D7EE
:1002A000D7A9870166B65C9B209B01A9D7D7D7B693
:1002B0005579D1D1555C5CD155557979A201A2D13E
:1002C0005555875C875C5C5C55A9BD555C252C55F4
:1002D0005555555CA95555558055C3A233B680D7A1
:1002E000796C5C6CD16CA9665CD7D75CA9556C6CD9
:1002F0006C6C6C6606555555875501BDA9BD8E6160
:10030000D7D7D7D7D7D7D7D7D7D7D7D7D7D7D7D77D
:10031000D7D7D7D7D7D7D7D7D7D7D7D7D7D7D7D76D
:10032000D7A98787A27987BD209B6C01D766D7A202
:1003300055A90101010101D10101D7D733D7C39BD1
:1003400040016C5C8706064001A9BD065C0C39556E
:100350000655066CA9554755A96CA2A279B64ED789
:10036000D766065C66016C5506A9BD47A92555559B
:1003700055555C01A95547559B66B679A9C31961C6
:10038000D7D7D7D7D7D7D7D7D7D7D7D7D7D7D7D7FD
:10039000D7D7D7D7D7D7D7D7D7D7D7D7D7D7D7D7ED
:1003A000D7D7D701062C40D7209BD7A979D7797901
:1003B00055A95CD1D1D155D155D17979A201A2D716
:1003C0004055875C875C5C5555A9BD5555554055D2
:1003D0005C4047D1A9556C3980A933A2A2B6D7D7C2
:1003E000D755555C555CA96655A9BD13A90C555543
:1003F00006665CD1A9556C3987D179BDA9BD40612C
:10040000D7D7D7D7D7D7D7D7D7D7D7D7D7D7D7D77C
:10041000D7D7D7D7D7D7D7D7D7D7D7D7D7D7D7D76C
:10042000D7A9D78780D76CD79B20D7A933D7793363
:1004300001A90101D10101D101017933C3D733A948
:100440004055066C06065C66556C79550155556C31
:100450005C6C5506A96CA9254EA90194B66CD70110
:10046000D7666C6C666CA96C55A27947A255556C21
:100470005CD15C069B6CA925876C01B0A973CA612D
:10048000000000000000000000000000000000006C
:10049000000000000000000000000000000000005C
:1004A000000000000000000000000000000000004C
:1004B000000000000000000000000000000000003C
:1004C000000000000000000000000000000000002C
:1004D000000000000000000000000000000000001C
:1004E000000000000000000000000000000000000C
:1004F00000000000000000000000000000000000FC
:1005000000000000000000000000000000000000EB
:1005100000000000000000000000000000000000DB
:1005200000000000000000000000000000000000CB
:1005300000000000000000000000000000000000BB
:1005400000000000000000000000000000000000AB
:10055000000000000000000000000000000000009B
:10056000000000000000000000000000000000008B
:10057000000000000000000000000000000000007B
:10058000000000000000000000000000000000006B
:10059000000000000000000000000000000000005B
:1005A000000000000000000000000000000000004B
:1005B000000000000000000000000000000000003B
:1005C000000000000000000000000000000000002B
:1005D000000000000000000000000000000000001B
:1005E000000000000000000000000000000000000B
:1005F00000000000000000000000000000000000FB
:10060000089598B9ED91249188B9099498B9ED911C
:1006100000C088B92050099498B9ED91205088B94C
:1006200098B988B9099498B9ED91205088B900C05B
:10063000099498B9ED9188B9205098B988B909946E
:1006400098B9ED9188B92491099498B9205088B946
:1006500098B9ED9188B9099498B9205088B9ED916D
:1006600098B988B9099498B9205088B9ED9100C01B
:10067000099498B988B998B9ED91205088B909942E
:1006800098B988B9205098B9ED9188B9099498B96A
:1006900088B9ED9198B9205088B9099498B988B96A
:1006A000ED9198B988B92050099498B988B9ED911D
:1006B000205098B988B9099498B988B9ED912491D6
:1006C000099478B9ED91249188B9099488B998B9B9
:1006D000ED9100C088B9099488B998B9ED9120507E
:1006E00088B92050099488B998B9ED9188B900C0AB
:1006F000099488B998B9205088B9ED91205009948F
:1007000088B998B988B998B988B9ED91099488B928
:1007100098B988B9ED9198B988B9099488B998B908
:1007200088B9ED9100C0099488B9205098B9ED912D
:10073000205088B9099488B9205098B9ED9188B9AA
:100740002050099488B9205098B9205088B9ED916B
:10075000099488B9205098B988B9ED91205009942E
:1007600088B9ED9198B900C088B9099488B9ED911C
:1007700098B9205088B92050099488B9ED9198B95A
:1007800088B900C0099488B9ED91205098B92050DB
:1007900088B9099488B9ED91205098B988B920504A
:1007A000099488B9ED9100C098B988B9099488B9BD
:1007B000ED9124912050099408950000000000005C
:1007C0000000000000000000000000000000000029
:1007D0000000000000000000000000000000000019
:1007E0000000000000000000000000000000000009
:1007F00000000000000000000000000000000000F9
:100800003F893F858381828C3F8A88868409603F47
:100810003F3F3F3F3F71313F3F3F7A736177329BAC
:100820003F6378646534339C3F2076667472359AF2
:100830003F6E62686779363F3F3F6D6A7537383F74
:100840003F2C6B696F30393F3F2E2F6C3B702D3F33
:100850003F3F273F5B3D3F3F983F0A5D3F5C3F3F47
:100860003F3F3F3F3F3F7F3F3F313F3437343F3F84
:10087000302E323536381B978B2B332D2A39993F42
:100880003F3F3F873F3F3F3F3F3F3F3F3F3F3F3F30
:100890003F3F3F3F3F3F3F3F3F3F3F3F3F3F3F3F68
:1008A0003F3F3F3F3F3F3F3F3F3F3F3F3F3F3F3F58
:1008B0003F3F3F3F3F3F3F3F3F3F3F3F3F3F3F3F48
:1008C0003F3F3F3F3F3F3F3F3F3F3F3F3F3F3F3F38
:1008D0003F3F3F3F3F3F3F3F3F3F3F3F3F3F3F3F28
:1008E0003F3F3F3F3F3F3F3F3F3F3F3F3F3F3F3F18
:1008F0003F3F3F3F3F3F3F3F3F3F3F3F3F3F3F3F08
:100900003F3F3F3F3F3F3F3F3F3F3F3F3F097E3FEE
:100910003F3F3F3F3F51213F3F3F5A534157409B4D
:100920003F4358444524239C3F2056465452259A21
:100930003F4E424847595E3F3F3F4D4A55262A3F6A
:100940003F3C4B494F29283F3F3E3F4C3A505F3F89
:100950003F3F223F7B2B3F3F983F0A7D3F7C3F3FFD
:100960003F3F3F3F3F3F7F3F3F3F3F3F3F3F3F3F57
:100970003F3F3F3F3F3F1B973F2B3F2D2A3F993F34
:100980003F3F3F3F3F3F3F3F3F3F3F3F3F3F3F3F77
:100990003F3F3F3F3F3F3F3F3F3F3F3F3F3F3F3F67
:1009A0003F3F3F3F3F3F3F3F3F3F3F3F3F3F3F3F57
:1009B0003F3F3F3F3F3F3F3F3F3F3F3F3F3F3F3F47
:1009C0003F3F3F3F3F3F3F3F3F3F3F3F3F3F3F3F37
:1009D0003F3F3F3F3F3F3F3F3F3F3F3F3F3F3F3F27
:1009E0003F3F3F3F3F3F3F3F3F3F3F3F3F3F3F3F17
:1009F0003F3F3F3F3F3F3F3F3F3F3F3F3F3F3F0046
:100A000011241FBECFEFD8E0DEBFCDBF11E0A0E0C4
:100A1000B1E0E2E6F8E202C005900D92A230B10723
:100A2000D9F726E0A2E0B1E001C01D92A331B207E0
:100A3000E1F70E946C130C942F140C94000008959D
:100A400080E09AB57EB3000000000000ADEDB5E097
:100A5000E0E0F6E0F695E795ED9109940895CF93DF
:100A6000DF93DC01FB01EA013D91FB01E30F3491CF
:100A700039933D91FB01E30F349139933D91FB0193
:100A8000E30F349139933D91FB01E30F3491399396
:100A90003D91FB01E30F349139933D91FB01E30F4D
:100AA000349139933D91FB01E30F349139933D919A
:100AB000FB01E30F349139933D91FB01E30F349136
:100AC00039933D91FB01E30F349139933D91FB0143
:100AD000E30F349139933D91FB01E30F3491399346
:100AE0003D91FB01E30F349139933D91FB01E30FFD
:100AF000349139933D91FB01E30F349139933D914A
:100B0000FB01E30F349139933D91FB01E30F3491E5
:100B100039933D91FB01E30F349139933D91FB01F2
:100B2000E30F349139933D91FB01E30F34913993F5
:100B30003D91FB01E30F349139933D91FB01E30FAC
:100B4000349139933D91FB01E30F349139933D91F9
:100B5000FB01E30F349139933D91FB01E30F349195
:100B600039933D91FB01E30F349139933D91FB01A2
:100B7000E30F349139933D91FB01E30F34913993A5
:100B80003D91FB01E30F349139933D91FB01E30F5C
:100B9000349139933D91FB01E30F349139933D91A9
:100BA000FB01E30F349139933D91FB01E30F349145
:100BB00039933D91FB01E30F349139933D91FB0152
:100BC000E30F349139933D91FB01E30F3491399355
:100BD0003D91FB01E30F349139933D91FB01E30F0C
:100BE000349139933D91FB01E30F349139933D9159
:100BF000FB01E30F3491399330E03993DF91CF91CA
:100C00000895DC016D936D936D936D936D936D936A
:100C10006D936D936D936D936D936D936D936D93D4
:100C20006D936D936D936D936D936D936D936D93C4
:100C30006D936D936D936D936D936D936D936D93B4
:100C40006D936D936D936D936D936D936D936D93A4
:100C50006D936D93089560910C0120910D0130E02A
:100C6000A9014F5F5F4F4F70552770E064177507FC
:100C700031F4809104018860809304010895F901A2
:100C8000E05CFE4F808340930D01089590910C012C
:100C900080910D01981771F020910C0130E0F9015D
:100CA000E05CFE4F80812F5F3F4F2F7033272093F2
:100CB0000C01089580E008951CBC8CE48CBD8FEF7E
:100CC0008EBD0895CF930DB407FEE6C38EB59FEF9A
:100CD0009EBD80935401803F21F481E080935301B5
:100CE000DBC3803E21F481E080935201D5C3823181
:100CF00039F49091530181E0892780935101C8C351
:100D00008935B9F3843139F49091530181E0892711
:100D100080935001BDC390E0FC01E050F84FC491B6
:100D2000CF3309F486C320915301211180C3209150
:100D30005101222321F0FC01E050F74FC491809132
:100D400050018111C056C7FFD8C2C73948F48BE1A2
:100D50000E942B068BE50E942B0680EB8C0F0FC3A5
:100D6000C93971F480910B0682FB992790F981E0D3
:100D7000892790910B0680FB92F990930B0657C33D
:100D8000CA3909F020C180910B06809590910B061D
:100D900080FB90F990930B0680910B0680FF47C370
:100DA00010921106809112068F5F8D3119F0809399
:100DB000120602C01092120680911206909110063F
:100DC00048E2849F900111248913BCC360E2C901E9
:100DD0008B5A9E4F0E940106809110068F5F809370
:100DE00010068D3111F41092100690911206809128
:100DF000110628E2929FF0011124EB5AFE4FE80FF2
:100E0000F11D2CE420838F5F883218F48093110643
:100E100021C01092110681E0890F8D3179F5109271
:100E20001206809112069091100648E2849F90016C
:100E30001124891393C360E2C9018B5A9E4F0E940B
:100E40000106809110068F5F809310068D3111F49A
:100E500010921006909112068091110628E2929F3E
:100E6000F0011124EB5AFE4FE80FF11D2FE620830D
:100E70008F5F883230F48093110624C0809312066D
:100E8000D0CF1092110681E0890F8D3179F5109243
:100E90001206809112069091100648E2849F9001FC
:100EA0001124891367C360E2C9018B5A9E4F0E94C7
:100EB0000106809110068F5F809310068D3111F42A
:100EC00010921006909112068091110628E2929FCE
:100ED000F0011124EB5AFE4FE80FF11D23E62083A9
:100EE0008F5F883230F48093110624C080931206FD
:100EF000D0CF1092110681E0890F8D3179F51092D3
:100F00001206809112069091100648E2849F90018B
:100F1000112489133BC360E2C9018B5A9E4F0E9482
:100F20000106809110068F5F809310068D3111F4B9
:100F300010921006909112068091110628E2929F5D
:100F4000F0011124EB5AFE4FE80FF11D21E620833A
:100F50008F5F883230F48093110624C0809312068C
:100F6000D0CF1092110681E0890F8D3149F5109292
:100F70001206809112069091100648E2849F90011B
:100F8000112489130FC360E2C9018B5A9E4F0E943E
:100F90000106809110068F5F809310068D3111F449
:100FA00010921006909112068091110628E2929FED
:100FB000F0011124EB5AFE4FE80FF11D2CE6F9C0A9
:100FC00080931206D6CFCC3909F031C280910B063E
:100FD00083FB992790F981E0892790910B0680FB8C
:100FE00093F990930B0680910B0683FF20C2109219
:100FF0001106809112068F5F809312068D3111F4D5
:1010000010921206809112069091100648E2849F79
:10101000900111248913CFC260E2C9018B5A9E4FFF
:101020000E940106809110068F5F809310068D311B
:1010300011F410921006909112068091110628E288
:10104000929FF0011124EB5AFE4FE80FF11D2BE4A3
:1010500020838F5F883218F48093110621C010928C
:10106000110681E0890F8D3169F510921206809189
:1010700012069091100648E2849F90011124891372
:1010800024C060E2C9018B5A9E4F0E9401068091E4
:1010900010068F5F809310068D3111F410921006A8
:1010A000909112068091110628E2929FF00111247E
:1010B000EB5AFE4FE80FF11D25E620838F5F883243
:1010C00028F50EC080931206D2CF909111062B5AAC
:1010D0003E4FF901E90FF11D85E6808381E0890F1C
:1010E00080931106909112068091110638E2939F29
:1010F000F0011124EB5AFE4FE80FF11D29E7208380
:101100008F5F883240F58093110646C01092110619
:1011100081E0890F8D31E1F4109212068091120660
:101120009091100648E2849F9001112489134FC2C8
:1011300060E2C9018B5A9E4F0E9401068091100601
:101140008F5F809310068D3169F610921006CACF1A
:1011500080931206E3CF1092110681E0890F8D3142
:1011600079F510921206809112069091100648E2CD
:10117000849F90011124891336C260E2C9018B5A01
:101180009E4F0E940106809110068F5F809310068B
:101190008D3111F410921006909112068091110673
:1011A00028E2929FF0011124EB5AFE4FE80FF11D47
:1011B00023E720838F5F883230F48093110624C0A8
:1011C00080931206D0CF1092110681E0890F8D31E5
:1011D00079F510921206809112069091100648E25D
:1011E000849F9001112489130AC260E2C9018B5ABD
:1011F0009E4F0E940106809110068F5F809310061B
:101200008D3111F410921006909112068091110602
:1012100028E2929FF0011124EB5AFE4FE80FF11DD6
:101220002AE320838F5F883230F48093110611C047
:1012300080931206D0CF1092110681E0890F8D3174
:1012400009F51092120680911206909110068917E6
:1012500031F080910C06811118C020E217C038E2ED
:10126000839FC001112460E28B5A9E4F0E940106A9
:10127000809110068F5F809310068D3151F7109288
:101280001006E7CF80931206DECF2FE7809112067B
:101290009091110638E2839FF0011124EB5AFE4F22
:1012A000E90FF11D20839F5F983218F49093110687
:1012B000BEC0109211068F5F8D31E1F410921206BC
:1012C00080911206909110068913B1C048E2849F64
:1012D000C001112460E28B5A9E4F0E94010680914A
:1012E00010068F5F809310068D3109F0A0C0109218
:1012F00010069DC080931206E3CF8091520188238F
:1013000009F492C082ED8C0F8C3008F067C0C833AE
:1013100041F48BE10E942B068BE50E942B0681E4B1
:1013200084C0C23341F48BE10E942B068BE50E94FE
:101330002B0682E47AC0C43341F48BE10E942B0671
:101340008BE50E942B0684E470C0C63341F48BE128
:101350000E942B068BE50E942B0683E466C0C733F0
:1013600041F48BE10E942B068BE50E942B0688E45A
:101370005CC0C13341F48BE10E942B068BE50E94D7
:101380002B0686E452C0C93341F48BE10E942B0640
:101390008BE50E942B0685E313C0C33341F48BE138
:1013A0000E942B068BE50E942B0686E309C0CE32F5
:1013B00059F48BE10E942B068BE50E942B0683E3F8
:1013C0000E942B068EE731C0CF3289F58BE10E9457
:1013D0002B068BE50E942B0682E3F2CFCA3221F561
:1013E00080910B068695817091E0892790910B067C
:1013F00080FB91F990930B0680910B068695817086
:1014000090910B0680FB90F990930B0680910B0650
:10141000877F80930B0680910B068B7F80930B0652
:101420008FEF8093060603C08C2F0E942B0680E06E
:1014300001C081E090910B0692FF02C0811104C0AF
:1014400080910B0683FF24C080915301882319F0FB
:101450008EE50E942B0680915201882319F088E5C1
:101460000E942B068091540182958F708A30C8F4B7
:1014700090E3890F0E942B06809154018F708A306F
:1014800090F490E3890F0E942B0680E20E942B06C5
:1014900010925201109253011D9B07C01B9B0AC062
:1014A00004C097E5E6CF97E5EDCF109203011092C7
:1014B0000201B1C0809102019091030101969093C5
:1014C000030180930201883E934009F0A4C08091FB
:1014D00012069091110628E2829FF0011124EB5A26
:1014E000FE4FE90FF11D2AE220839F5F983218F426
:1014F0009093110624C0109211068F5F8D31E1F494
:10150000109212068091120690911006891317C04E
:1015100048E2849FC001112460E28B5A9E4F0E94D2
:101520000106809110068F5F8D3119F080931006AF
:1015300006C01092100603C080931206E3CFCF912D
:101540000C945C06909111062B5A3E4FF901E90F5D
:10155000F11D8CE4808381E0890F58CC90911106B5
:101560002B5A3E4FF901E90FF11D8FE6808381E090
:10157000890F81CC909111062B5A3E4FF901E90F4A
:10158000F11D83E6808381E0890FADCC9091110637
:101590002B5A3E4FF901E90FF11D81E6808381E06E
:1015A000890FD9CC909111062B5A3E4FF901E90FC2
:1015B000F11D8CE620C0909111062B5A3E4FF90187
:1015C000E90FF11D8BE4808381E0890F45CD909177
:1015D00011062B5A3E4FF901E90FF11D89E780836F
:1015E00081E0890F90CD909111062B5A3E4FF90161
:1015F000E90FF11D83E7808381E0890FDECD9091B3
:1016000011062B5A3E4FF901E90FF11D8AE3808341
:1016100081E0890F0ACECF9108951F920F920FB6E5
:101620000F9211242F933F934F935F936F937F9368
:101630008F939F93AF93BF93EF93FF938091840019
:101640008770863069F0853061F0843059F08330DE
:1016500051F0823049F0813041F0803039F00000A3
:10166000000000000000000000000000000018B8AA
:101670008091090690910A069C012F5F3F4F30939D
:101680000A06209309064F978D3C41E0940708F025
:1016900065C020FD5FC09695879580930806682FEA
:1016A0006770609307068695869586956530D8F1B4
:1016B0001092DD05653009F52091120630E0409169
:1016C000100690E0840F911D2817390731F0235E32
:1016D0003F4F8217930709F03FC0609101018DEDE4
:1016E00095E00E940106E0911106F0E0E352FA4F06
:1016F00080910001808311822FC0663069F590913E
:101700001006890F8D3108F08D51E8E28E9FC001DF
:1017100011248B5A9E4FFC01208121111DC060E2D3
:101720000E94010619C090911006890F8D3108F0B2
:101730008D51F0E86F9FB001112460507E4F28E278
:10174000829FC00111244DED55E08B5A9E4F0E949F
:101750002F0502C00E94200518B813C018B8809148
:10176000090690910A068E3E41E0940711F45B98B9
:1017700008C0813F914028F010920A061092090695
:101780005B9AFF91EF91BF91AF919F918F917F9164
:101790006F915F914F913F912F910F900FBE0F90DE
:1017A0001F901895CF938091C00085FF0FC00E94B5
:1017B0004606C82F882351F080910B0680FDCCC1CE
:1017C0008091C00085FFFCCFC093C6008091C0000F
:1017D00087FFBFC18091C00087FFFCCFC091C600CA
:1017E00080910B0680FDB5C180910F0681116AC002
:1017F000CB3179F0A0910C064091120688E2489F07
:1018000090011124909111068C2FB9016B5A7E4FD3
:1018100002C081E084C18F778D3019F410921106D7
:101820005FC3883011F08F3791F490931106809147
:101830001106882309F454C38150809311062B5A52
:101840003E4FF901E80FF11D80E2808349C38A30E1
:1018500011F5909311064F5F4D3119F04093120628
:1018600002C0109212068091120690911006891300
:1018700037C328E2829FC001112460E28B5A9E4F39
:101880000E940106809110068F5F8D3109F029C1F9
:101890001092100628C1803218F49093110620C3CC
:1018A000803211F4A1118FE7FB01E90FF11D808354
:1018B00051E0590F8AE090E0583208F0ACCF5093D5
:1018C00011060EC3813079F5CB3511F482E027C1C2
:1018D000C13441F4809112068F5F8D3151F4109222
:1018E00012068BC0C23451F480911206811104C0DB
:1018F0008CE18093120681C08150FBCFC33439F450
:1019000080911106873208F078C08F5F09C0C43417
:1019100009F073C080911106882309F46EC08150CC
:10192000809311066AC0823009F06AC0CB3311F48B
:1019300083E0F5C080ED8C0F8A3048F490910E065C
:101940002AE0929F800D112480930E0602C1C834B4
:1019500029F580910E06811103C081E080930E0667
:1019600080910D06811103C081E080930D06809166
:101970000E06815020910D062150209311063091C2
:10198000100690E0830F911D6DE170E00E94F91345
:1019900080931206283268F187E274C0CA3471F469
:1019A00060E285E591E00E940106E5E5F1E010A620
:1019B000B89685E0E53BF807D1F71BC0C13451F478
:1019C000809112068F5F809312068D3191F41092F0
:1019D00012060FC0C23431F480911206811133C057
:1019E0008CE132C0C33499F1C43409F445C0CD361A
:1019F000A1F110920E0610920D0610920F0670C201
:101A0000833009F042C080ED8C0F8A3048F4909109
:101A10000D062AE0929F800D112480930D0699C037
:101A2000C83409F496CFCA3449F660E285E591E0FE
:101A30000E940106E5E5F1E010A6B89685E0E53BD9
:101A4000F807D1F7D6CF815080931206D2CF80917C
:101A50001106873270F68F5F15C080910E0698EDE3
:101A6000980F993020F481E080930C06C2CF811149
:101A7000C0CF10920C06BDCF80911106882309F4C7
:101A8000B8CF815080931106B4CF843091F480EEAA
:101A90008C0F80930E0685E080930F06CA3009F004
:101AA00058C080910E06811140C081E080930E06DF
:101AB0003CC0853061F480EE8C0F80930D069091D0
:101AC0000E0691114FCF91E090930E064BCF8630CA
:101AD00009F03FC0CB33E9F180ED8C0F8A30C8F1BB
:101AE0008CCF80931006CA30A1F580910F0681112A
:101AF00003C0109211062DC0813031F0823039F4CC
:101B000010920E0610920D0610920F0622C083301E
:101B1000B9F3843039F48DEE80930E0685E080931E
:101B20000F0617C0853099F4BCCF20910E062150C6
:101B30008091100690E0820F911D6DE170E00E948F
:101B4000F9138093120687E280931106D9CF86306D
:101B5000D9F2CF910C94620680910F0681116CC06E
:101B6000CB3179F0A0910C064091120688E2489F93
:101B700090011124909111068C2FB9016B5A7E4F60
:101B800002C081E088C18F778D3019F41092110660
:101B9000A3C1883011F08F3791F490931106809192
:101BA0001106882309F498C18150809311062B5A9D
:101BB0003E4FF901E80FF11D80E280838DC18A302C
:101BC00021F5909311064F5F4D3119F040931206A5
:101BD00002C010921206809112069091100689138D
:101BE0007BC128E2829FC001112460E28B5A9E4F84
:101BF0000E940106809110068F5F809310068D3140
:101C000009F033C11092100630C1803218F490935D
:101C1000110662C1803211F4A1118FE7FB01E90FB7
:101C2000F11D808351E0590F8AE090E0583208F0AE
:101C3000AACF5093110650C1813079F5CB3511F4FC
:101C400082E029C1C13441F4809112068F5F8D3149
:101C500051F4109212068FC0C23451F480911206D2
:101C6000811104C08CE18093120685C08150FBCFA6
:101C7000C33439F480911106873208F07CC08F5F3D
:101C800009C0C43409F077C080911106882309F493
:101C900072C08150809311066EC0823009F06EC010
:101CA000CB3311F483E0F7C080ED8C0F8A3060F401
:101CB00080910E06880F982F990F990F890F8053E6
:101CC000C80FC0930E0682CDC83429F580910E0648
:101CD000811103C081E080930E0680910D06811171
:101CE00003C081E080930D0680910E068150209103
:101CF0000D062150209311063091100690E0830FBD
:101D0000911D6DE170E00E94F91380931206283254
:101D100070F187E279C0CA3479F460E285E591E038
:101D20000E940106E5E5F1E085EB95E010A6B89686
:101D30008E179F07D9F71BC0C13451F4809112064A
:101D40008F5F809312068D3191F4109212060FC0AE
:101D5000C23431F480911206811137C08CE136C053
:101D6000C334B9F1C43409F449C0CD36C1F110927D
:101D70000E0610920D0610920F06AEC0833009F0C9
:101D800046C080ED8C0F8A3060F480910D06880F7C
:101D9000982F990F990F890F8053C80FC0930D0684
:101DA00015CDC83409F492CFCA3431F660E285E526
:101DB00091E00E940106E5E5F1E085EB95E010A6D3
:101DC000B8968E179F07D9F7D2CF8150809312060D
:101DD000CECF80911106873250F68F5F15C080916B
:101DE0000E0698ED980F993020F481E080930C0650
:101DF000BECF8111BCCF10920C06B9CF80911106D5
:101E0000882309F4B4CF815080931106B0CF843079
:101E100091F480EE8C0F80930E0685E080930F0680
:101E2000CA3009F0D3CC80910E0681113AC081E00E
:101E300080930E0636C0853061F480EE8C0F80935F
:101E40000D0690910E0691114ACF91E090930E06E7
:101E500046CF863009F0BACCCB3309F4B7CC80ED4D
:101E60008C0F8A3008F4B2CC86CFCA3009F0AECCE1
:101E700080910F06811103C010921106A7CC81300A
:101E800029F18230F9F08330E9F0843039F48DEEB5
:101E900080930E0685E080930F0698CC8530C9F4B8
:101EA000C2CF20910E0621508091100690E0820F43
:101EB000911D6DE170E00E94F9138093120687E294
:101EC0008093110610920E0610920D0610920F06C6
:101ED0007DCC8630D9F37ACCCA3009F077CCCCCF20
:101EE000CA3009F036CE05CE60E285E591E00E9469
:101EF0000106E5E5F1E010A6B89685E0E53BF807B8
:101F0000D1F708952091C5008091C40090E0922BF4
:101F10000895CF93DF93EC01FE018491882309F4A7
:101F200066C02196A0910C0640911206F8E24F9FE0
:101F30009001112490911106B9016B5A7E4F8F7751
:101F40008D3019F410921106E7CF883089F4909300
:101F50001106809111068823F9F2815080931106B1
:101F60002B5A3E4FF901E80FF11D80E28083D4CF58
:101F70008F3769F38A3021F5909311064F5F4D3109
:101F800019F04093120602C01092120680911206B8
:101F9000909110068913C0CF28E2829FC0011124BE
:101FA00060E28B5A9E4F0E940106809110068F5F5F
:101FB0008D3119F080931006AFCF10921006ACCF80
:101FC000803218F490931106A7CF803211F4A1113A
:101FD0008FE7FB01E90FF11D808351E0590F8AE083
:101FE00090E0583208F0ABCF5093110695CFDF91B7
:101FF000CF910895FF920F931F93CF93DF93F82E05
:102000008B01EA0180910C06811102C020E201C01F
:102010002FE7809112069091110638E2839FF0011C
:102020001124EB5AFE4FE90FF11D20839F5F983278
:1020300018F49093110624C0109211068F5F8D3111
:10204000E1F4109212068091120690911006891305
:1020500017C028E2829FC001112460E28B5A9E4F74
:102060000E940106809110068F5F8D3119F08093D8
:10207000100606C01092100603C080931206E3CF2C
:102080002091060680911206909111062F1130C002
:1020900028E2829FF0011124EB5AFE4FE90FF11D57
:1020A0002EE320839F5F9832B0F1109211068F5F6C
:1020B0008D31D9F41092120680911206909110067B
:1020C000891341C048E2849FC001112460E28B5A09
:1020D0009E4F0E940106809110068F5F809310062C
:1020E0008D3189F5109210062EC080931206E4CF30
:1020F00020910C06211102C020E201C02FE748E226
:10210000849FF0011124EB5AFE4FE90FF11D20834B
:102110009F5F983218F49093110615C01092110623
:102120008F5F8D3169F410921206809112069091A2
:102130001006891308C038E2839FC0011124C6CF5E
:1021400080931206F2CFC8010E94890F80910C067D
:10215000811102C020E201C02FE780911206909108
:10216000110638E2839FF0011124EB5AFE4FE90F6C
:10217000F11D20839F5F983218F49093110624C0BC
:10218000109211068F5F8D31E1F41092120680914A
:10219000120690911006891317C028E2829FC00191
:1021A000112460E28B5A9E4F0E9401068091100616
:1021B0008F5F8D3119F08093100606C010921006C3
:1021C00003C080931206E3CFC03127E2D207E8F1C3
:1021D000309112062091110688E2389FF0011124F7
:1021E000EB5AFE4FE20FF11DCE0160E177E20E9453
:1021F000E513605D60832F5F283220F11092110695
:102200003F5F3D31E1F410921206209112063091A9
:10221000100648E2249FC001112423135BC060E232
:102220008B5A9E4F0E940106809110068F5F8D3160
:1022300019F0809310060EC0109210060BC0309358
:102240001206E3CF2093110605C0C83E83E0D807ED
:1022500008F458C0309112062091110648E2349FCC
:10226000F0011124EB5AFE4FE20FF11DCE0168EE92
:1022700073E00E94E513CB016AE070E00E94E51371
:10228000805D808381E0820F8832C8F11092110650
:102290003F5F3D31E1F41092120620911206309119
:1022A000100648E2249FC001112423136FC060E28E
:1022B0008B5A9E4F0E940106809110068F5F8D31D0
:1022C00019F08093100622C0109210061FC03093A0
:1022D0001206E3CF209111068B5A9E4FFC01E20FAC
:1022E000F11DCE0168EE73E00E94E513CB016AE0B8
:1022F00070E00E94E513805D808381E0820F80930F
:10230000110604C0C436D10508F458C03091120635
:102310002091110648E2349FF0011124EB5AFE4F40
:10232000E20FF11DCE0164E670E00E94E513CB01DF
:102330006AE070E00E94E513805D808381E0820F97
:102340008832C8F1109211063F5F3D31E1F41092DE
:102350001206209112063091100648E2249FC00117
:10236000112423136FC060E28B5A9E4F0E94010616
:10237000809110068F5F8D3119F08093100622C076
:10238000109210061FC030931206E3CF2091110661
:102390008B5A9E4FFC01E20FF11DCE0164E670E006
:1023A0000E94E513CB016AE070E00E94E513805DB6
:1023B000808381E0820F8093110604C0CA30D1056A
:1023C00008F457C0309112062091110688E2389F18
:1023D000F0011124EB5AFE4FE20FF11D0AE010E06C
:1023E000CE01B8010E94E513CB01B8010E94E513AC
:1023F000805D808381E0820F8832C8F110921106DF
:102400003F5F3D31E1F410921206209112063091A7
:10241000100648E2249FC0011124231305C160E285
:102420008B5A9E4F0E940106809110068F5F8D315E
:1024300019F0809310061DC0109210061AC0309338
:102440001206E3CF209111068B5A9E4FFC01E20F3A
:10245000F11D0AE010E0CE01B8010E94E513CB01A6
:10246000B8010E94E513805D808381E0820F809334
:102470001106309112062091110688E2389FF00172
:102480001124EB5AFE4FE20FF11DCE016AE070E01D
:102490000E94E513805D808381E0820F883240F4E2
:1024A0008093110680910C06811126C020E225C080
:1024B000109211063F5F3D31E1F4109212068091B7
:1024C0001206909110068913EDCF28E2829FC00179
:1024D000112460E28B5A9E4F0E94010680911006E3
:1024E0008F5F8D3119F080931006DCCF10921006AB
:1024F000D9CF30931206E3CF2FE780911206909147
:10250000110648E2849FF0011124EB5AFE4FE90FB7
:10251000F11D20839F5F983240F4909311068091C3
:102520000C06811126C020E225C0109211068F5F93
:102530008D31E1F4109212068091120690911006EE
:102540008913EDCF38E2839FC001112460E28B5ADA
:102550009E4F0E940106809110068F5F8D3119F009
:1025600080931006DCCF10921006D9CF809312060C
:10257000E3CF2FE7809112069091110638E2839FF6
:10258000F0011124EB5AFE4FE90FF11D20839F5FEC
:10259000983220F1109211068F5F8D31E1F4109284
:1025A00012068091120690911006891317C028E236
:1025B000829FC001112460E28B5A9E4F0E94010647
:1025C000809110068F5F8D3119F08093100606C040
:1025D0001092100603C080931206E3CF10921106EA
:1025E000809112068F5F8D3119F08093120602C020
:1025F000109212068091120690911006891325C040
:1026000048E2849FC001112460E28B5A9E4F0E94D1
:102610000106809110068F5F8D3119F080931006AE
:1026200014C01092100611C0209111068B5A9E4FB3
:10263000FC01E20FF11DCE016AE070E00E94E5139B
:10264000805D808381E0820F2BCFDF91CF911F913E
:102650000F91FF900895809106068F3F41F40E94EC
:10266000740F84E600008150E9F71092060610927C
:10267000110682E0809312060E94820F01969C014F
:1026800040E050E060E472E48FE090E00E940D14BE
:10269000A9016DE770E080E00E94FA0F4EB350E0B0
:1026A00066E770E081E00E94FA0F4AB550E06FE6FD
:1026B00070E082E00E94FA0F4BB550E068E670E0EF
:1026C00083E00E94FA0F89E890E00E94890F10923F
:1026D000110610921206089582E08EBB83E08ABD37
:1026E00081E08093B10083EA91E00E94890F89E83C
:1026F00090E00E94890F8EE08093C2001092C50086
:1027000080E18093C400559A219A539A389A399A55
:102710003A9A23982B9824982C9825982D980E94C3
:102720005C0680918100887F809381008CE192E03B
:10273000909387008093860081EF91E090938900C9
:102740008093880081E090E09093850080938400DE
:10275000299A809180008E7F8093800080918000F4
:1027600082608093800080918100886080938100E6
:1027700080918100806180938100809180008F73BF
:102780008093800080918000806880938000809199
:102790006F00816080936F0080918100887F8093BB
:1027A00081008091810081608093810083B7817F67
:1027B00083BF789483B7816083BF80910B0681FDCE
:1027C0000E942B130E94D20BF8CFAA1BBB1B51E116
:1027D00007C0AA1FBB1FA617B70710F0A61BB70B91
:1027E000881F991F5A95A9F780959095BC01CD0136
:1027F000089597FB072E16F4009407D077FD09D0B3
:102800000E94E51307FC05D03EF4909581959F4FFB
:102810000895709561957F4F0895A1E21A2EAA1B25
:10282000BB1BFD010DC0AA1FBB1FEE1FFF1FA21780
:10283000B307E407F50720F0A21BB30BE40BF50B7D
:10284000661F771F881F991F1A9469F76095709506
:10285000809590959B01AC01BD01CF010895F8943E
:02286000FFCFA8
:0228620061D73C
:00000001FF
