:1000000009C016C015C014C013C012C011C010C062
:100010000FC00EC011241FBECFE9CDBF20E0A0E667
:10002000B0E001C01D92AD37B207E1F702D01FC1A9
:10003000E7CF80E886BD16BCBB9AC39ABA9AC2982D
:100040002FEF89E698E1215080409040E1F700C011
:100050000000C39AC29ABB9ABA9AB898C09ABC9840
:10006000C498B998C19880917C0090E0FC01E55952
:10007000FF4F3DE4308301968F709927FC01E559CD
:10008000FF4F20EF208301968F709927FC01E559DF
:10009000FF4F308301968F709927FC01E559FF4F80
:1000A0003BE1308301968F709927FC01E559FF4FA2
:1000B000208301968F709927FC01E559FF4F30830B
:1000C00001968F709927FC01E559FF4F3EE130837F
:1000D00001968F709927FC01E559FF4F2083019607
:1000E0008F709927FC01E559FF4F308301968F707F
:1000F000992780937C0020E030E061E050E12F5FA1
:100100003F4FC90187709927892B29F580916A0093
:10011000811102C0C29A1FC080FD0DC0909168007D
:10012000492F440F4093680097FF02C0C29A01C054
:10013000C298C3980DC0C39A90916900492F469503
:10014000B09902C090E001C090E8940F90936900CC
:10015000815080936A00F6B386B3E1E0782F707126
:1001600084FFE0E0809164008823D1F1711138C0F0
:1001700040916100411103C0109260002CC08FEFCC
:10018000840F8830C8F48091600090E09595879541
:10019000AF2FA270F1FF02C0F0E801C0F0E08F2B9A
:1001A0008093600091E0A11101C090E08091660011
:1001B0008927809366000FC0493069F0609367001B
:1001C000809160008093630010926000109266003E
:1001D0001092610005C0109262004F5F4093610071
:1001E000E0936400809162008F5F809362008111D0
:1001F0000CC080916100882341F0772331F0109288
:100200006000109261001092660080916700882360
:1002100081F01092670080917C0090E0FC01E5592C
:10022000FF4F40916300408301968F709927809320
:100230007C0080917B0090917C00891721F0909147
:100240006A00992329F082E08A95F1F700C057CF20
:1002500090E0FC01E559FF4F408101968F7099278E
:1002600080937B004093680050936A00ECCFF89431
:02027000FFCFBE
:00000001FF
